:0400000054EF00F0C9
:100008003B82FACF02F0FBCF03F0E9CF04F0EACF4E
:1000180005F0E1CF06F0E2CF07F0D9CF08F0DACF4C
:1000280009F0F3CF0AF0F4CF0BF0F6CF0CF0F7CFCE
:100038000DF0F8CF0EF0F5CF0FF00E01CEA312D0D1
:100048000E01C6A30FD0B78EB18E84B003D0016A5B
:10005800012A01D0016A84500118FE0B0118846E30
:100068000E01CE930FC0F5FF0EC0F8FF0DC0F7FFCD
:100078000CC0F6FF0BC0F4FF0AC0F3FF09C0DAFF9B
:1000880008C0D9FF07C0E2FF06C0E1FF05C0EAFFCC
:1000980004C0E9FF03C0FBFF02C0FAFF3B92110056
:1000A80049EF01F0850E1D5C030E1E58D8A004D040
:1000B800030E1E6E840E1D6E1DC010F01EC011F0C2
:1000C800000E136E0E0E126E64EC01F010C016F0E6
:1000D80011C017F0000E196E2D0E186E20EC01F0ED
:1000E800161E171E164A172AE80E16241D6E030E32
:1000F80017201E6E030E1E5CD8A002D0030E07D078
:10010800020E1E5CD8A002D0020E01D0010EAB6E0A
:100118001DC0AAFF1200850E1D5C030E1E58D8A034
:1001280004D0030E1E6E840E1D6E1DC010F01EC07E
:1001380011F0000E136E0B0E126E64EC01F010C07D
:1001480016F011C017F0000E196E2D0E186E20EC67
:1001580001F00C0E16241D6E030E17201E6E030EE2
:100168001E5CD8A002D0030E07D0020E1E5CD8A0D9
:1001780002D0020E01D0010EA76E1DC0A6FF12000C
:10018800F2EC00F08990000E8B6E050E3924396E62
:10019800000E3A203A6EDD0E395C050E3A58D8A0AA
:1001A80004D0000E3A6E000E396E39C01DF03AC008
:1001B8001EF056EC00F039C01DF03AC01EF08FEC6E
:1001C80000F0020E206EA00E1F6E920EE82EFED7D3
:1001D8001F2EFCD7202EFAD700D0D7D7F00EB76E37
:1001E800010EB96E080EB86EB6680C0EAC6E0C0E29
:1001F800A86EAA0EAE6E030EAB6E800EAA6E030E2C
:10020800A76E800EA66E790EBD6E010EBF6E000E33
:10021800BE6EFB0EBC6EBD8E0E01C683F28CF29ACA
:10022800F28EAC8EA88E8A948A92050E0E01F96F12
:10023800060E0E01F86F1200000E1B6E000E1A6EED
:1002480018501910D8B41CD0010E1C6E04D0D890C8
:10025800183619361C2A19AEFAD7D8901A361B3612
:100268001850165C19501758D8A005D01850165EAB
:100278001950175A1A80D890193218321C2EEDD7F7
:100288001AC016F01BC017F01200EE0EF66E020E22
:10029800F76E000EF86E00EE35F010EE04F009006F
:1002A800F5CFEEFFE550E150FAE100EE21F0140E33
:1002B800EE6AE806FDE13B903B920001C4EF00F0D6
:1002C80010501202F3CF14F0F4CF15F010501302AF
:1002D800F350152611501202F350152614C010F0D1
:0A02E80015C011F012000100010022
:020000040020DA
:10000000FF0FFF0FFF0FFF0FFF0FFF0FFF0FFF0F80
:020000040030CA
:0C0000008CDF3FFF9FFFFFDFFFFFFFFFD3
:00000001FF
